{
  "address": "0x0eC2E1906d7294EF8f25A73e3206a1e7adDac842",
  "_format": "hh-sol-artifact-1",
  "contractName": "ADai",
  "sourceName": "contracts/ADAI.sol",
  "abi": [
    {
      "inputs": [],
      "stateMutability": "nonpayable",
      "type": "constructor"
    },
    {
      "inputs": [
        {
          "internalType": "address",
          "name": "spender",
          "type": "address"
        },
        {
          "internalType": "uint256",
          "name": "allowance",
          "type": "uint256"
        },
        {
          "internalType": "uint256",
          "name": "needed",
          "type": "uint256"
        }
      ],
      "name": "ERC20InsufficientAllowance",
      "type": "error"
    },
    {
      "inputs": [
        {
          "internalType": "address",
          "name": "sender",
          "type": "address"
        },
        {
          "internalType": "uint256",
          "name": "balance",
          "type": "uint256"
        },
        {
          "internalType": "uint256",
          "name": "needed",
          "type": "uint256"
        }
      ],
      "name": "ERC20InsufficientBalance",
      "type": "error"
    },
    {
      "inputs": [
        {
          "internalType": "address",
          "name": "approver",
          "type": "address"
        }
      ],
      "name": "ERC20InvalidApprover",
      "type": "error"
    },
    {
      "inputs": [
        {
          "internalType": "address",
          "name": "receiver",
          "type": "address"
        }
      ],
      "name": "ERC20InvalidReceiver",
      "type": "error"
    },
    {
      "inputs": [
        {
          "internalType": "address",
          "name": "sender",
          "type": "address"
        }
      ],
      "name": "ERC20InvalidSender",
      "type": "error"
    },
    {
      "inputs": [
        {
          "internalType": "address",
          "name": "spender",
          "type": "address"
        }
      ],
      "name": "ERC20InvalidSpender",
      "type": "error"
    },
    {
      "anonymous": false,
      "inputs": [
        {
          "indexed": true,
          "internalType": "address",
          "name": "owner",
          "type": "address"
        },
        {
          "indexed": true,
          "internalType": "address",
          "name": "spender",
          "type": "address"
        },
        {
          "indexed": false,
          "internalType": "uint256",
          "name": "value",
          "type": "uint256"
        }
      ],
      "name": "Approval",
      "type": "event"
    },
    {
      "anonymous": false,
      "inputs": [
        {
          "indexed": true,
          "internalType": "address",
          "name": "from",
          "type": "address"
        },
        {
          "indexed": true,
          "internalType": "address",
          "name": "to",
          "type": "address"
        },
        {
          "indexed": false,
          "internalType": "uint256",
          "name": "amount",
          "type": "uint256"
        }
      ],
      "name": "CustomTransfer",
      "type": "event"
    },
    {
      "anonymous": false,
      "inputs": [
        {
          "indexed": true,
          "internalType": "address",
          "name": "from",
          "type": "address"
        },
        {
          "indexed": true,
          "internalType": "address",
          "name": "to",
          "type": "address"
        },
        {
          "indexed": false,
          "internalType": "uint256",
          "name": "value",
          "type": "uint256"
        }
      ],
      "name": "Transfer",
      "type": "event"
    },
    {
      "inputs": [],
      "name": "INITIAL_SUPPLY",
      "outputs": [
        {
          "internalType": "uint256",
          "name": "",
          "type": "uint256"
        }
      ],
      "stateMutability": "view",
      "type": "function"
    },
    {
      "inputs": [],
      "name": "admin",
      "outputs": [
        {
          "internalType": "address",
          "name": "",
          "type": "address"
        }
      ],
      "stateMutability": "view",
      "type": "function"
    },
    {
      "inputs": [
        {
          "internalType": "address",
          "name": "owner",
          "type": "address"
        },
        {
          "internalType": "address",
          "name": "spender",
          "type": "address"
        }
      ],
      "name": "allowance",
      "outputs": [
        {
          "internalType": "uint256",
          "name": "",
          "type": "uint256"
        }
      ],
      "stateMutability": "view",
      "type": "function"
    },
    {
      "inputs": [
        {
          "internalType": "address",
          "name": "spender",
          "type": "address"
        },
        {
          "internalType": "uint256",
          "name": "value",
          "type": "uint256"
        }
      ],
      "name": "approve",
      "outputs": [
        {
          "internalType": "bool",
          "name": "",
          "type": "bool"
        }
      ],
      "stateMutability": "nonpayable",
      "type": "function"
    },
    {
      "inputs": [
        {
          "internalType": "address",
          "name": "account",
          "type": "address"
        }
      ],
      "name": "balanceOf",
      "outputs": [
        {
          "internalType": "uint256",
          "name": "",
          "type": "uint256"
        }
      ],
      "stateMutability": "view",
      "type": "function"
    },
    {
      "inputs": [
        {
          "internalType": "address",
          "name": "owner",
          "type": "address"
        },
        {
          "internalType": "uint256",
          "name": "amount",
          "type": "uint256"
        }
      ],
      "name": "burn",
      "outputs": [],
      "stateMutability": "nonpayable",
      "type": "function"
    },
    {
      "inputs": [],
      "name": "decimals",
      "outputs": [
        {
          "internalType": "uint8",
          "name": "",
          "type": "uint8"
        }
      ],
      "stateMutability": "view",
      "type": "function"
    },
    {
      "inputs": [
        {
          "internalType": "address",
          "name": "to",
          "type": "address"
        },
        {
          "internalType": "uint256",
          "name": "amount",
          "type": "uint256"
        }
      ],
      "name": "mint",
      "outputs": [],
      "stateMutability": "nonpayable",
      "type": "function"
    },
    {
      "inputs": [],
      "name": "name",
      "outputs": [
        {
          "internalType": "string",
          "name": "",
          "type": "string"
        }
      ],
      "stateMutability": "view",
      "type": "function"
    },
    {
      "inputs": [],
      "name": "symbol",
      "outputs": [
        {
          "internalType": "string",
          "name": "",
          "type": "string"
        }
      ],
      "stateMutability": "view",
      "type": "function"
    },
    {
      "inputs": [],
      "name": "totalSupply",
      "outputs": [
        {
          "internalType": "uint256",
          "name": "",
          "type": "uint256"
        }
      ],
      "stateMutability": "view",
      "type": "function"
    },
    {
      "inputs": [
        {
          "internalType": "address",
          "name": "to",
          "type": "address"
        },
        {
          "internalType": "uint256",
          "name": "amount",
          "type": "uint256"
        }
      ],
      "name": "transfer",
      "outputs": [
        {
          "internalType": "bool",
          "name": "",
          "type": "bool"
        }
      ],
      "stateMutability": "nonpayable",
      "type": "function"
    },
    {
      "inputs": [
        {
          "internalType": "address",
          "name": "from",
          "type": "address"
        },
        {
          "internalType": "address",
          "name": "to",
          "type": "address"
        },
        {
          "internalType": "uint256",
          "name": "value",
          "type": "uint256"
        }
      ],
      "name": "transferFrom",
      "outputs": [
        {
          "internalType": "bool",
          "name": "",
          "type": "bool"
        }
      ],
      "stateMutability": "nonpayable",
      "type": "function"
    },
    {
      "inputs": [
        {
          "internalType": "address",
          "name": "newAdmin",
          "type": "address"
        }
      ],
      "name": "updateAdmin",
      "outputs": [],
      "stateMutability": "nonpayable",
      "type": "function"
    }
  ],
  "bytecode": "0x60806040523480156200001157600080fd5b506040518060400160405280600a81526020017f6144414920546f6b656e000000000000000000000000000000000000000000008152506040518060400160405280600481526020017f61444149000000000000000000000000000000000000000000000000000000008152508181816003908162000091919062000642565b508060049081620000a3919062000642565b50505033600560006101000a81548173ffffffffffffffffffffffffffffffffffffffff021916908373ffffffffffffffffffffffffffffffffffffffff1602179055505050620001053369d3c21bcecceda10000006200010b60201b60201c565b62000860565b600073ffffffffffffffffffffffffffffffffffffffff168273ffffffffffffffffffffffffffffffffffffffff1603620001805760006040517fec442f050000000000000000000000000000000000000000000000000000000081526004016200017791906200076e565b60405180910390fd5b62000194600083836200019860201b60201c565b5050565b600073ffffffffffffffffffffffffffffffffffffffff168373ffffffffffffffffffffffffffffffffffffffff1603620001ee578060026000828254620001e19190620007ba565b92505081905550620002c4565b60008060008573ffffffffffffffffffffffffffffffffffffffff1673ffffffffffffffffffffffffffffffffffffffff168152602001908152602001600020549050818110156200027d578381836040517fe450d38c000000000000000000000000000000000000000000000000000000008152600401620002749392919062000806565b60405180910390fd5b8181036000808673ffffffffffffffffffffffffffffffffffffffff1673ffffffffffffffffffffffffffffffffffffffff16815260200190815260200160002081905550505b600073ffffffffffffffffffffffffffffffffffffffff168273ffffffffffffffffffffffffffffffffffffffff16036200030f57806002600082825403925050819055506200035c565b806000808473ffffffffffffffffffffffffffffffffffffffff1673ffffffffffffffffffffffffffffffffffffffff168152602001908152602001600020600082825401925050819055505b8173ffffffffffffffffffffffffffffffffffffffff168373ffffffffffffffffffffffffffffffffffffffff167fddf252ad1be2c89b69c2b068fc378daa952ba7f163c4a11628f55a4df523b3ef83604051620003bb919062000843565b60405180910390a3505050565b600081519050919050565b7f4e487b7100000000000000000000000000000000000000000000000000000000600052604160045260246000fd5b7f4e487b7100000000000000000000000000000000000000000000000000000000600052602260045260246000fd5b600060028204905060018216806200044a57607f821691505b60208210810362000460576200045f62000402565b5b50919050565b60008190508160005260206000209050919050565b60006020601f8301049050919050565b600082821b905092915050565b600060088302620004ca7fffffffffffffffffffffffffffffffffffffffffffffffffffffffffffffffff826200048b565b620004d686836200048b565b95508019841693508086168417925050509392505050565b6000819050919050565b6000819050919050565b6000620005236200051d6200051784620004ee565b620004f8565b620004ee565b9050919050565b6000819050919050565b6200053f8362000502565b620005576200054e826200052a565b84845462000498565b825550505050565b600090565b6200056e6200055f565b6200057b81848462000534565b505050565b5b81811015620005a3576200059760008262000564565b60018101905062000581565b5050565b601f821115620005f257620005bc8162000466565b620005c7846200047b565b81016020851015620005d7578190505b620005ef620005e6856200047b565b83018262000580565b50505b505050565b600082821c905092915050565b60006200061760001984600802620005f7565b1980831691505092915050565b600062000632838362000604565b9150826002028217905092915050565b6200064d82620003c8565b67ffffffffffffffff811115620006695762000668620003d3565b5b62000675825462000431565b62000682828285620005a7565b600060209050601f831160018114620006ba5760008415620006a5578287015190505b620006b1858262000624565b86555062000721565b601f198416620006ca8662000466565b60005b82811015620006f457848901518255600182019150602085019450602081019050620006cd565b8683101562000714578489015162000710601f89168262000604565b8355505b6001600288020188555050505b505050505050565b600073ffffffffffffffffffffffffffffffffffffffff82169050919050565b6000620007568262000729565b9050919050565b620007688162000749565b82525050565b60006020820190506200078560008301846200075d565b92915050565b7f4e487b7100000000000000000000000000000000000000000000000000000000600052601160045260246000fd5b6000620007c782620004ee565b9150620007d483620004ee565b9250828201905080821115620007ef57620007ee6200078b565b5b92915050565b6200080081620004ee565b82525050565b60006060820190506200081d60008301866200075d565b6200082c6020830185620007f5565b6200083b6040830184620007f5565b949350505050565b60006020820190506200085a6000830184620007f5565b92915050565b61136f80620008706000396000f3fe608060405234801561001057600080fd5b50600436106100ea5760003560e01c806370a082311161008c578063a9059cbb11610066578063a9059cbb1461024d578063dd62ed3e1461027d578063e2f273bd146102ad578063f851a440146102c9576100ea565b806370a08231146101e357806395d89b41146102135780639dc29fac14610231576100ea565b806323b872dd116100c857806323b872dd1461015b5780632ff2e9dc1461018b578063313ce567146101a957806340c10f19146101c7576100ea565b806306fdde03146100ef578063095ea7b31461010d57806318160ddd1461013d575b600080fd5b6100f76102e7565b6040516101049190610f57565b60405180910390f35b61012760048036038101906101229190611012565b610379565b604051610134919061106d565b60405180910390f35b61014561039c565b6040516101529190611097565b60405180910390f35b610175600480360381019061017091906110b2565b6103a6565b604051610182919061106d565b60405180910390f35b6101936103d5565b6040516101a09190611097565b60405180910390f35b6101b16103e3565b6040516101be9190611121565b60405180910390f35b6101e160048036038101906101dc9190611012565b6103ec565b005b6101fd60048036038101906101f8919061113c565b61048a565b60405161020a9190611097565b60405180910390f35b61021b6104d2565b6040516102289190610f57565b60405180910390f35b61024b60048036038101906102469190611012565b610564565b005b61026760048036038101906102629190611012565b610602565b604051610274919061106d565b60405180910390f35b61029760048036038101906102929190611169565b610681565b6040516102a49190611097565b60405180910390f35b6102c760048036038101906102c2919061113c565b610708565b005b6102d16107dc565b6040516102de91906111b8565b60405180910390f35b6060600380546102f690611202565b80601f016020809104026020016040519081016040528092919081815260200182805461032290611202565b801561036f5780601f106103445761010080835404028352916020019161036f565b820191906000526020600020905b81548152906001019060200180831161035257829003601f168201915b5050505050905090565b600080610384610802565b905061039181858561080a565b600191505092915050565b6000600254905090565b6000806103b1610802565b90506103be85828561081c565b6103c98585856108b0565b60019150509392505050565b69d3c21bcecceda100000081565b60006012905090565b600560009054906101000a900473ffffffffffffffffffffffffffffffffffffffff1673ffffffffffffffffffffffffffffffffffffffff163373ffffffffffffffffffffffffffffffffffffffff161461047c576040517f08c379a00000000000000000000000000000000000000000000000000000000081526004016104739061127f565b60405180910390fd5b61048682826109a4565b5050565b60008060008373ffffffffffffffffffffffffffffffffffffffff1673ffffffffffffffffffffffffffffffffffffffff168152602001908152602001600020549050919050565b6060600480546104e190611202565b80601f016020809104026020016040519081016040528092919081815260200182805461050d90611202565b801561055a5780601f1061052f5761010080835404028352916020019161055a565b820191906000526020600020905b81548152906001019060200180831161053d57829003601f168201915b5050505050905090565b600560009054906101000a900473ffffffffffffffffffffffffffffffffffffffff1673ffffffffffffffffffffffffffffffffffffffff163373ffffffffffffffffffffffffffffffffffffffff16146105f4576040517f08c379a00000000000000000000000000000000000000000000000000000000081526004016105eb9061127f565b60405180910390fd5b6105fe8282610a26565b5050565b60008273ffffffffffffffffffffffffffffffffffffffff163373ffffffffffffffffffffffffffffffffffffffff167fe5e0aab7feb98b539542ebe6f8ae203f58e3ca9648e12808e9298825debc15be846040516106619190611097565b60405180910390a360006106758484610aa8565b90508091505092915050565b6000600160008473ffffffffffffffffffffffffffffffffffffffff1673ffffffffffffffffffffffffffffffffffffffff16815260200190815260200160002060008373ffffffffffffffffffffffffffffffffffffffff1673ffffffffffffffffffffffffffffffffffffffff16815260200190815260200160002054905092915050565b600560009054906101000a900473ffffffffffffffffffffffffffffffffffffffff1673ffffffffffffffffffffffffffffffffffffffff163373ffffffffffffffffffffffffffffffffffffffff1614610798576040517f08c379a000000000000000000000000000000000000000000000000000000000815260040161078f9061127f565b60405180910390fd5b80600560006101000a81548173ffffffffffffffffffffffffffffffffffffffff021916908373ffffffffffffffffffffffffffffffffffffffff16021790555050565b600560009054906101000a900473ffffffffffffffffffffffffffffffffffffffff1681565b600033905090565b6108178383836001610acb565b505050565b60006108288484610681565b90507fffffffffffffffffffffffffffffffffffffffffffffffffffffffffffffffff81146108aa578181101561089a578281836040517ffb8f41b20000000000000000000000000000000000000000000000000000000081526004016108919392919061129f565b60405180910390fd5b6108a984848484036000610acb565b5b50505050565b600073ffffffffffffffffffffffffffffffffffffffff168373ffffffffffffffffffffffffffffffffffffffff16036109225760006040517f96c6fd1e00000000000000000000000000000000000000000000000000000000815260040161091991906111b8565b60405180910390fd5b600073ffffffffffffffffffffffffffffffffffffffff168273ffffffffffffffffffffffffffffffffffffffff16036109945760006040517fec442f0500000000000000000000000000000000000000000000000000000000815260040161098b91906111b8565b60405180910390fd5b61099f838383610ca2565b505050565b600073ffffffffffffffffffffffffffffffffffffffff168273ffffffffffffffffffffffffffffffffffffffff1603610a165760006040517fec442f05000000000000000000000000000000000000000000000000000000008152600401610a0d91906111b8565b60405180910390fd5b610a2260008383610ca2565b5050565b600073ffffffffffffffffffffffffffffffffffffffff168273ffffffffffffffffffffffffffffffffffffffff1603610a985760006040517f96c6fd1e000000000000000000000000000000000000000000000000000000008152600401610a8f91906111b8565b60405180910390fd5b610aa482600083610ca2565b5050565b600080610ab3610802565b9050610ac08185856108b0565b600191505092915050565b600073ffffffffffffffffffffffffffffffffffffffff168473ffffffffffffffffffffffffffffffffffffffff1603610b3d5760006040517fe602df05000000000000000000000000000000000000000000000000000000008152600401610b3491906111b8565b60405180910390fd5b600073ffffffffffffffffffffffffffffffffffffffff168373ffffffffffffffffffffffffffffffffffffffff1603610baf5760006040517f94280d62000000000000000000000000000000000000000000000000000000008152600401610ba691906111b8565b60405180910390fd5b81600160008673ffffffffffffffffffffffffffffffffffffffff1673ffffffffffffffffffffffffffffffffffffffff16815260200190815260200160002060008573ffffffffffffffffffffffffffffffffffffffff1673ffffffffffffffffffffffffffffffffffffffff168152602001908152602001600020819055508015610c9c578273ffffffffffffffffffffffffffffffffffffffff168473ffffffffffffffffffffffffffffffffffffffff167f8c5be1e5ebec7d5bd14f71427d1e84f3dd0314c0f7b2291e5b200ac8c7c3b92584604051610c939190611097565b60405180910390a35b50505050565b600073ffffffffffffffffffffffffffffffffffffffff168373ffffffffffffffffffffffffffffffffffffffff1603610cf4578060026000828254610ce89190611305565b92505081905550610dc7565b60008060008573ffffffffffffffffffffffffffffffffffffffff1673ffffffffffffffffffffffffffffffffffffffff16815260200190815260200160002054905081811015610d80578381836040517fe450d38c000000000000000000000000000000000000000000000000000000008152600401610d779392919061129f565b60405180910390fd5b8181036000808673ffffffffffffffffffffffffffffffffffffffff1673ffffffffffffffffffffffffffffffffffffffff16815260200190815260200160002081905550505b600073ffffffffffffffffffffffffffffffffffffffff168273ffffffffffffffffffffffffffffffffffffffff1603610e105780600260008282540392505081905550610e5d565b806000808473ffffffffffffffffffffffffffffffffffffffff1673ffffffffffffffffffffffffffffffffffffffff168152602001908152602001600020600082825401925050819055505b8173ffffffffffffffffffffffffffffffffffffffff168373ffffffffffffffffffffffffffffffffffffffff167fddf252ad1be2c89b69c2b068fc378daa952ba7f163c4a11628f55a4df523b3ef83604051610eba9190611097565b60405180910390a3505050565b600081519050919050565b600082825260208201905092915050565b60005b83811015610f01578082015181840152602081019050610ee6565b60008484015250505050565b6000601f19601f8301169050919050565b6000610f2982610ec7565b610f338185610ed2565b9350610f43818560208601610ee3565b610f4c81610f0d565b840191505092915050565b60006020820190508181036000830152610f718184610f1e565b905092915050565b600080fd5b600073ffffffffffffffffffffffffffffffffffffffff82169050919050565b6000610fa982610f7e565b9050919050565b610fb981610f9e565b8114610fc457600080fd5b50565b600081359050610fd681610fb0565b92915050565b6000819050919050565b610fef81610fdc565b8114610ffa57600080fd5b50565b60008135905061100c81610fe6565b92915050565b6000806040838503121561102957611028610f79565b5b600061103785828601610fc7565b925050602061104885828601610ffd565b9150509250929050565b60008115159050919050565b61106781611052565b82525050565b6000602082019050611082600083018461105e565b92915050565b61109181610fdc565b82525050565b60006020820190506110ac6000830184611088565b92915050565b6000806000606084860312156110cb576110ca610f79565b5b60006110d986828701610fc7565b93505060206110ea86828701610fc7565b92505060406110fb86828701610ffd565b9150509250925092565b600060ff82169050919050565b61111b81611105565b82525050565b60006020820190506111366000830184611112565b92915050565b60006020828403121561115257611151610f79565b5b600061116084828501610fc7565b91505092915050565b600080604083850312156111805761117f610f79565b5b600061118e85828601610fc7565b925050602061119f85828601610fc7565b9150509250929050565b6111b281610f9e565b82525050565b60006020820190506111cd60008301846111a9565b92915050565b7f4e487b7100000000000000000000000000000000000000000000000000000000600052602260045260246000fd5b6000600282049050600182168061121a57607f821691505b60208210810361122d5761122c6111d3565b5b50919050565b7f6f6e6c792061646d696e00000000000000000000000000000000000000000000600082015250565b6000611269600a83610ed2565b915061127482611233565b602082019050919050565b600060208201905081810360008301526112988161125c565b9050919050565b60006060820190506112b460008301866111a9565b6112c16020830185611088565b6112ce6040830184611088565b949350505050565b7f4e487b7100000000000000000000000000000000000000000000000000000000600052601160045260246000fd5b600061131082610fdc565b915061131b83610fdc565b9250828201905080821115611333576113326112d6565b5b9291505056fea26469706673582212206704ebc7666c35b06b2ab8a5daccc100dfb0e013da2cbe9cef0ebfea884ecb1064736f6c63430008140033",
  "linkReferences": {},
  "deployedLinkReferences": {}
}